{
  "_format": "hh-sol-artifact-1",
  "contractName": "VotingSystem",
  "sourceName": "contracts/Voting.sol",
  "abi": [
    {
      "inputs": [],
      "stateMutability": "nonpayable",
      "type": "constructor"
    },
    {
      "inputs": [
        {
          "internalType": "address",
          "name": "owner",
          "type": "address"
        }
      ],
      "name": "OwnableInvalidOwner",
      "type": "error"
    },
    {
      "inputs": [
        {
          "internalType": "address",
          "name": "account",
          "type": "address"
        }
      ],
      "name": "OwnableUnauthorizedAccount",
      "type": "error"
    },
    {
      "anonymous": false,
      "inputs": [
        {
          "indexed": true,
          "internalType": "address",
          "name": "previousOwner",
          "type": "address"
        },
        {
          "indexed": true,
          "internalType": "address",
          "name": "newOwner",
          "type": "address"
        }
      ],
      "name": "OwnershipTransferred",
      "type": "event"
    },
    {
      "anonymous": false,
      "inputs": [
        {
          "indexed": true,
          "internalType": "uint256",
          "name": "id",
          "type": "uint256"
        },
        {
          "indexed": false,
          "internalType": "string",
          "name": "description",
          "type": "string"
        },
        {
          "indexed": true,
          "internalType": "address",
          "name": "createdBy",
          "type": "address"
        },
        {
          "indexed": false,
          "internalType": "uint256",
          "name": "startTime",
          "type": "uint256"
        },
        {
          "indexed": false,
          "internalType": "uint256",
          "name": "endTime",
          "type": "uint256"
        },
        {
          "indexed": false,
          "internalType": "uint256[]",
          "name": "options",
          "type": "uint256[]"
        }
      ],
      "name": "ProposalCreated",
      "type": "event"
    },
    {
      "anonymous": false,
      "inputs": [
        {
          "indexed": true,
          "internalType": "uint256",
          "name": "id",
          "type": "uint256"
        },
        {
          "indexed": true,
          "internalType": "address",
          "name": "voter",
          "type": "address"
        },
        {
          "indexed": false,
          "internalType": "uint256",
          "name": "weight",
          "type": "uint256"
        },
        {
          "indexed": false,
          "internalType": "uint256",
          "name": "votedOption",
          "type": "uint256"
        }
      ],
      "name": "VoteCast",
      "type": "event"
    },
    {
      "inputs": [
        {
          "internalType": "string",
          "name": "_description",
          "type": "string"
        },
        {
          "internalType": "uint256",
          "name": "_startTime",
          "type": "uint256"
        },
        {
          "internalType": "uint256",
          "name": "_endTime",
          "type": "uint256"
        },
        {
          "internalType": "uint256[]",
          "name": "_options",
          "type": "uint256[]"
        }
      ],
      "name": "createProposal",
      "outputs": [],
      "stateMutability": "nonpayable",
      "type": "function"
    },
    {
      "inputs": [],
      "name": "owner",
      "outputs": [
        {
          "internalType": "address",
          "name": "",
          "type": "address"
        }
      ],
      "stateMutability": "view",
      "type": "function"
    },
    {
      "inputs": [],
      "name": "renounceOwnership",
      "outputs": [],
      "stateMutability": "nonpayable",
      "type": "function"
    },
    {
      "inputs": [
        {
          "internalType": "address",
          "name": "newOwner",
          "type": "address"
        }
      ],
      "name": "transferOwnership",
      "outputs": [],
      "stateMutability": "nonpayable",
      "type": "function"
    },
    {
      "inputs": [
        {
          "internalType": "address",
          "name": "",
          "type": "address"
        }
      ],
      "name": "voterRecords",
      "outputs": [
        {
          "internalType": "uint256",
          "name": "",
          "type": "uint256"
        }
      ],
      "stateMutability": "view",
      "type": "function"
    },
    {
      "inputs": [
        {
          "internalType": "uint256",
          "name": "",
          "type": "uint256"
        },
        {
          "internalType": "address",
          "name": "",
          "type": "address"
        }
      ],
      "name": "votes",
      "outputs": [
        {
          "internalType": "bool",
          "name": "hasVoted",
          "type": "bool"
        },
        {
          "internalType": "uint256",
          "name": "weight",
          "type": "uint256"
        },
        {
          "internalType": "uint256",
          "name": "votedOption",
          "type": "uint256"
        }
      ],
      "stateMutability": "view",
      "type": "function"
    }
  ],
  "bytecode": "0x60806040526001805534801561001457600080fd5b5033600073ffffffffffffffffffffffffffffffffffffffff168173ffffffffffffffffffffffffffffffffffffffff16036100885760006040517f1e4fbdf700000000000000000000000000000000000000000000000000000000815260040161007f91906101a2565b60405180910390fd5b6100978161009d60201b60201c565b506101bd565b60008060009054906101000a900473ffffffffffffffffffffffffffffffffffffffff169050816000806101000a81548173ffffffffffffffffffffffffffffffffffffffff021916908373ffffffffffffffffffffffffffffffffffffffff1602179055508173ffffffffffffffffffffffffffffffffffffffff168173ffffffffffffffffffffffffffffffffffffffff167f8be0079c531659141344cd1fd0a4f28419497f9722a3daafe3b4186f6b6457e060405160405180910390a35050565b600073ffffffffffffffffffffffffffffffffffffffff82169050919050565b600061018c82610161565b9050919050565b61019c81610181565b82525050565b60006020820190506101b76000830184610193565b92915050565b611234806101cc6000396000f3fe608060405234801561001057600080fd5b50600436106100625760003560e01c80631538b0be14610067578063715018a6146100835780638da5cb5b1461008d578063d23254b4146100ab578063e5b506c9146100dd578063f2fde38b1461010d575b600080fd5b610081600480360381019061007c91906108b8565b610129565b005b61008b6103ee565b005b610095610402565b6040516100a29190610998565b60405180910390f35b6100c560048036038101906100c091906109df565b61042b565b6040516100d493929190610a49565b60405180910390f35b6100f760048036038101906100f29190610a80565b61046f565b6040516101049190610aad565b60405180910390f35b61012760048036038101906101229190610a80565b610487565b005b61013161050d565b6000845111610175576040517f08c379a000000000000000000000000000000000000000000000000000000000815260040161016c90610b25565b60405180910390fd5b4283116101b7576040517f08c379a00000000000000000000000000000000000000000000000000000000081526004016101ae90610bb7565b60405180910390fd5b8282116101f9576040517f08c379a00000000000000000000000000000000000000000000000000000000081526004016101f090610c49565b60405180910390fd5b60028151101561023e576040517f08c379a000000000000000000000000000000000000000000000000000000000815260040161023590610cdb565b60405180910390fd5b60006001600081548092919061025390610d2a565b91905055905060006002600083815260200190815260200160002090508181600001819055508581600101908161028a9190610f89565b50338160020160006101000a81548173ffffffffffffffffffffffffffffffffffffffff021916908373ffffffffffffffffffffffffffffffffffffffff16021790555084816003018190555083816004018190555060008160060160006101000a81548160ff02191690831515021790555060005b835181101561039057816005018482815181106103205761031f61105b565b5b6020026020010151908060018154018082558091505060019003906000526020600020016000909190919091505560008260070160008684815181106103695761036861105b565b5b60200260200101518152602001908152602001600020819055508080600101915050610300565b503373ffffffffffffffffffffffffffffffffffffffff16827faa482ae6111392c58212c26986d4e237507705034be6c39a149cc46de0a49352888888886040516103de94939291906111ab565b60405180910390a3505050505050565b6103f661050d565b6104006000610594565b565b60008060009054906101000a900473ffffffffffffffffffffffffffffffffffffffff16905090565b6003602052816000526040600020602052806000526040600020600091509150508060000160009054906101000a900460ff16908060010154908060020154905083565b60046020528060005260406000206000915090505481565b61048f61050d565b600073ffffffffffffffffffffffffffffffffffffffff168173ffffffffffffffffffffffffffffffffffffffff16036105015760006040517f1e4fbdf70000000000000000000000000000000000000000000000000000000081526004016104f89190610998565b60405180910390fd5b61050a81610594565b50565b610515610658565b73ffffffffffffffffffffffffffffffffffffffff16610533610402565b73ffffffffffffffffffffffffffffffffffffffff161461059257610556610658565b6040517f118cdaa70000000000000000000000000000000000000000000000000000000081526004016105899190610998565b60405180910390fd5b565b60008060009054906101000a900473ffffffffffffffffffffffffffffffffffffffff169050816000806101000a81548173ffffffffffffffffffffffffffffffffffffffff021916908373ffffffffffffffffffffffffffffffffffffffff1602179055508173ffffffffffffffffffffffffffffffffffffffff168173ffffffffffffffffffffffffffffffffffffffff167f8be0079c531659141344cd1fd0a4f28419497f9722a3daafe3b4186f6b6457e060405160405180910390a35050565b600033905090565b6000604051905090565b600080fd5b600080fd5b600080fd5b600080fd5b6000601f19601f8301169050919050565b7f4e487b7100000000000000000000000000000000000000000000000000000000600052604160045260246000fd5b6106c78261067e565b810181811067ffffffffffffffff821117156106e6576106e561068f565b5b80604052505050565b60006106f9610660565b905061070582826106be565b919050565b600067ffffffffffffffff8211156107255761072461068f565b5b61072e8261067e565b9050602081019050919050565b82818337600083830152505050565b600061075d6107588461070a565b6106ef565b90508281526020810184848401111561077957610778610679565b5b61078484828561073b565b509392505050565b600082601f8301126107a1576107a0610674565b5b81356107b184826020860161074a565b91505092915050565b6000819050919050565b6107cd816107ba565b81146107d857600080fd5b50565b6000813590506107ea816107c4565b92915050565b600067ffffffffffffffff82111561080b5761080a61068f565b5b602082029050602081019050919050565b600080fd5b600061083461082f846107f0565b6106ef565b905080838252602082019050602084028301858111156108575761085661081c565b5b835b81811015610880578061086c88826107db565b845260208401935050602081019050610859565b5050509392505050565b600082601f83011261089f5761089e610674565b5b81356108af848260208601610821565b91505092915050565b600080600080608085870312156108d2576108d161066a565b5b600085013567ffffffffffffffff8111156108f0576108ef61066f565b5b6108fc8782880161078c565b945050602061090d878288016107db565b935050604061091e878288016107db565b925050606085013567ffffffffffffffff81111561093f5761093e61066f565b5b61094b8782880161088a565b91505092959194509250565b600073ffffffffffffffffffffffffffffffffffffffff82169050919050565b600061098282610957565b9050919050565b61099281610977565b82525050565b60006020820190506109ad6000830184610989565b92915050565b6109bc81610977565b81146109c757600080fd5b50565b6000813590506109d9816109b3565b92915050565b600080604083850312156109f6576109f561066a565b5b6000610a04858286016107db565b9250506020610a15858286016109ca565b9150509250929050565b60008115159050919050565b610a3481610a1f565b82525050565b610a43816107ba565b82525050565b6000606082019050610a5e6000830186610a2b565b610a6b6020830185610a3a565b610a786040830184610a3a565b949350505050565b600060208284031215610a9657610a9561066a565b5b6000610aa4848285016109ca565b91505092915050565b6000602082019050610ac26000830184610a3a565b92915050565b600082825260208201905092915050565b7f4465736372697074696f6e206973207265717569726564000000000000000000600082015250565b6000610b0f601783610ac8565b9150610b1a82610ad9565b602082019050919050565b60006020820190508181036000830152610b3e81610b02565b9050919050565b7f53746172742054696d652073686f756c6420626520696e20746865206675747560008201527f7265000000000000000000000000000000000000000000000000000000000000602082015250565b6000610ba1602283610ac8565b9150610bac82610b45565b604082019050919050565b60006020820190508181036000830152610bd081610b94565b9050919050565b7f456e642074696d652073686f756c64206265206166746572205374617274205460008201527f696d650000000000000000000000000000000000000000000000000000000000602082015250565b6000610c33602383610ac8565b9150610c3e82610bd7565b604082019050919050565b60006020820190508181036000830152610c6281610c26565b9050919050565b7f41746c656173742074776f206f7074696f6e7320726571756972656420666f7260008201527f20766f74696e6700000000000000000000000000000000000000000000000000602082015250565b6000610cc5602783610ac8565b9150610cd082610c69565b604082019050919050565b60006020820190508181036000830152610cf481610cb8565b9050919050565b7f4e487b7100000000000000000000000000000000000000000000000000000000600052601160045260246000fd5b6000610d35826107ba565b91507fffffffffffffffffffffffffffffffffffffffffffffffffffffffffffffffff8203610d6757610d66610cfb565b5b600182019050919050565b600081519050919050565b7f4e487b7100000000000000000000000000000000000000000000000000000000600052602260045260246000fd5b60006002820490506001821680610dc457607f821691505b602082108103610dd757610dd6610d7d565b5b50919050565b60008190508160005260206000209050919050565b60006020601f8301049050919050565b600082821b905092915050565b600060088302610e3f7fffffffffffffffffffffffffffffffffffffffffffffffffffffffffffffffff82610e02565b610e498683610e02565b95508019841693508086168417925050509392505050565b6000819050919050565b6000610e86610e81610e7c846107ba565b610e61565b6107ba565b9050919050565b6000819050919050565b610ea083610e6b565b610eb4610eac82610e8d565b848454610e0f565b825550505050565b600090565b610ec9610ebc565b610ed4818484610e97565b505050565b5b81811015610ef857610eed600082610ec1565b600181019050610eda565b5050565b601f821115610f3d57610f0e81610ddd565b610f1784610df2565b81016020851015610f26578190505b610f3a610f3285610df2565b830182610ed9565b50505b505050565b600082821c905092915050565b6000610f6060001984600802610f42565b1980831691505092915050565b6000610f798383610f4f565b9150826002028217905092915050565b610f9282610d72565b67ffffffffffffffff811115610fab57610faa61068f565b5b610fb58254610dac565b610fc0828285610efc565b600060209050601f831160018114610ff35760008415610fe1578287015190505b610feb8582610f6d565b865550611053565b601f19841661100186610ddd565b60005b8281101561102957848901518255600182019150602085019450602081019050611004565b868310156110465784890151611042601f891682610f4f565b8355505b6001600288020188555050505b505050505050565b7f4e487b7100000000000000000000000000000000000000000000000000000000600052603260045260246000fd5b60005b838110156110a857808201518184015260208101905061108d565b60008484015250505050565b60006110bf82610d72565b6110c98185610ac8565b93506110d981856020860161108a565b6110e28161067e565b840191505092915050565b600081519050919050565b600082825260208201905092915050565b6000819050602082019050919050565b611122816107ba565b82525050565b60006111348383611119565b60208301905092915050565b6000602082019050919050565b6000611158826110ed565b61116281856110f8565b935061116d83611109565b8060005b8381101561119e5781516111858882611128565b975061119083611140565b925050600181019050611171565b5085935050505092915050565b600060808201905081810360008301526111c581876110b4565b90506111d46020830186610a3a565b6111e16040830185610a3a565b81810360608301526111f3818461114d565b90509594505050505056fea26469706673582212201e4183763f563d8f0e3a3c6475dc573cd19f48a475baef44844a05c7ca1c6f8564736f6c634300081c0033",
  "linkReferences": {},
  "deployedLinkReferences": {}
}